:0300000002016496
:0C016400787FE4F6D8FD75814C0201ABF9
:0A055B00010203040000000000008C
:1003D3000149000D3C000000000000000000000087
:0203E300000018
:07056D00D2AFC288D2A82220
:10026B0078087C007D007BFF7A05795B7E007F053B
:10027B001200D6780D7C007D007BFF7A0579607EBD
:10028B00007F051200D612054F120534120368D2F7
:10029B00807B007A00793C120403E5456431702FB2
:1002AB00E54664397029E54764397023E548B43471
:1002BB001EC2807B007A0079081202DE12048BEFDB
:1002CB0070057FC812051F7545307FC812051FD2F8
:0302DB008080BE62
:0300030002058172
:010581003247
:03057E00DFFE227B
:10051F00AE07AF061EEF600C7FF512057E7FF5125A
:05052F00057E80EE22B4
:02050700AD073E
:10050900E4FCECC39D500EE4FB7FC812051F0BBB36
:0505190005F70C80ED68
:01051E0022BA
:050574001994091201B9
:1004CE00E4FEEF30E704D2A48002C2A4EF25E0FFE1
:0E04DE00D2A130A203430701C2A10EBE08E462
:0104EC0022ED
:0E0534007F0212051FC2A0D2A3C2A1D2B22222
:0C054200C2A31204CEE4FF1204CED2A328
:01054E00228A
:0904ED007D017F211204F67F223B
:1004F600C2A31204CEAC07AF051204CED2A3AF043A
:0105060022D2
:0603A2008B1B8A1C891D63
:1003A800C2A31204CEAD07E4FCECC3951E5017E4BB
:1003B800FF1204CEAB1BAA1CA91D8C82758300EF0B
:0A03C8001201420C80E3D2A3AF053E
:0103D2002208
:0B032B007BFF7A0579747519057F2AA5
:060336008B168A178918DE
:10033C00C2A31204CEAD07E4FCECC395195018AB64
:10034C00160518E518AA177002051714F91200FC07
:0B035C00FF1204CE0C80E2D2A3AF051C
:010367002273
:1002DE008B128A138914C2A07BFF7A057974751963
:1002EE00057F3012033612032BAB12AA13A9147515
:1002FE0019047FA01203361204ED7D0A7F24120426
:10030E00F67D407F251204F67D077F261204F67DCA
:0D031E000E7F201204F6D2A07F0502051FFD
:10046000C2A012032B1204ED7D407F251204F67DFD
:10047000047F311204F67D077F261204F67D0F7F7C
:0B048000201204F6D2A07F0502051F29
:10048B007F071205428F202005033004137DFF7F69
:10049B00271204F6C2A37FE11204CED2A37F00225F
:0304AB007F0122AC
:060432008B4A8A4B894C45
:10043800E4FB7F071205428F20300612C2A0AB4AA8
:10044800AA4BA94C751E047F611203A27B017DFF94
:070458007F271204F6AF0339
:01045F00227A
:0C054F00759850438920758DFAD28E22D9
:080565008F993099FDC2992223
:0604AE008B138A1489156E
:1004B400E4FEAB13AA14A9158E82758300120115EC
:0904C400FF60061205650E80E9D7
:0104CD00220C
:05057900C298AF9922B9
:060403008B128A1389141C
:10040900E4FEFFEEC3940D501F3098F7120579BF33
:100419002B02E4FEAB12AA13A9148E82758300EF96
:080429001201420EC29880DBB3
:0104310022A8
:1001F00041540D0A00415445300D0A0041542B432F
:10020000574D4F44453D320D0A0041542B4357533F
:1002100041503D2257694669436172222C22303198
:100220003233343536373839222C312C340D0A002C
:1002300041542B5253540D0A0041542B4349504D05
:1002400055583D310D0A0041542B434950534552F6
:100250005645523D312C383038360D0A0041542B6A
:0B02600043495053544F3D300D0A003D
:1003E5001B21FF01F0FF01F5FF01FCFF020AFF02DF
:0D03F50030FF01F5FF0239FF0247FF025DF6
:10036800E4F512E51275F003A42421F8860308E6E3
:10037800FA08E6F91204AE7FFA12051F7FFA120591
:100388001FE512B4040A7FFA12051F7FFA12051F2F
:090398000512E512C3940940CAE4
:0103A1002239
:1001700002026BE493A3F8E493A34003F68001F238
:1001800008DFF48029E493A3F85407240CC8C33390
:10019000C4540F4420C8834004F456800146F6DF5F
:1001A000E4800B01020408102040809003D3E47E19
:1001B000019360BCA3FF543F30E509541FFEE49354
:1001C000A360010ECF54C025E060A840B8E493A31B
:1001D000FAE493A3F8E493A3C8C582C8CAC583CA46
:1001E000F0A3C8C582C8CAC583CADFE9DEE780BEFE
:0104020000F9
:10000600E709F608DFFA8046E709F208DFFA803EDC
:1000160088828C83E709F0A3DFFA8032E309F608C9
:10002600DFFA8078E309F208DFFA807088828C8331
:10003600E309F0A3DFFA806489828A83E0A3F608E5
:10004600DFFA805889828A83E0A3F208DFFA804CBF
:1000560080D280FA80C680D4806980F28033801096
:1000660080A680EA809A80A880DA80E280CA8033FF
:1000760089828A83ECFAE493A3C8C582C8CCC58377
:10008600CCF0A3C8C582C8CCC583CCDFE9DEE78047
:100096000D89828A83E493A3F608DFF9ECFAA9F0C6
:1000A600EDFB2289828A83ECFAE0A3C8C582C8CC1C
:1000B600C583CCF0A3C8C582C8CCC583CCDFEADE35
:1000C600E880DB89828A83E493A3F208DFF980CC97
:1000D60088F0EF60010E4E60C388F0ED2402B40490
:1000E6000050B9F582EB2402B4040050AF23234537
:0600F60082239000567306
:1000FC00BB010689828A83E0225002E722BBFE0202
:09010C00E32289828A83E4932234
:10011500BB010CE58229F582E5833AF583E022509F
:1001250006E92582F8E622BBFE06E92582F8E222E9
:0D013500E58229F582E5833AF583E4932203
:10014200F8BB010DE58229F582E5833AF583E8F0F3
:10015200225006E92582C8F622BBFE05E92582C89F
:02016200F22287
:00000001FF
