:0300000002143CAB
:0C143C00787FE4F6D8FD7581520214831D
:050006000000000000F5
:0F000E00C113C114C192C11101160002140000E8
:101AA400D2AFD2A9C288D2A8438901C28C758C3C1A
:041AB400758AB0225D
:03000B0002154992
:10154900C0E0C0F0C083C082C0D075D000C000C068
:1015590001C002C003C004C005C006C007758C3CA9
:10156900758AB00515E51570020514AE14FF7C00E7
:101579007D0A120859ED4C7002B281E515B4B0121A
:10158900E514B4040D7514007515007F32121B198A
:101599001516D007D006D005D004D003D002D0014B
:0D15A900D000D0D0D082D083D0F0D0E0327E
:030003000214C81C
:1014C800C0E0C0F0C083C082C0D075D000C000C0EA
:0D14D80001C002C003C004C005C006C0076B
:1014E500783C7C007D007BFF7A0079067E007F05D5
:1014F5001207B97B007A00793C12181EEF6027E5C8
:101505003C64017021E53EB4031CE53DB40217E5DA
:101515003FB404127FC8121A65301206C212D28077
:091525008004D212C28012184C9D
:10152E00D007D006D005D004D003D002D001D00011
:0B153E00D0D0D082D083D0F0D0E032BB
:100B0500E4F523C280D281D290121B06121AEF128D
:100B15001AA412112B7F28121A35201203020C6712
:100B2500121AB8D28C30900E20110BE4F5169000F5
:100B3500287441F0D211209002C21120150FE5163C
:100B4500D394005008E4F51612164C80EEE51660B5
:100B550003020C51201503020C51900308E0FF908D
:100B65000028E06F6003020C1F900309E0FF90006E
:100B750029E06F6003020C1F90030AE0FF90002A32
:100B8500E06F6003020C1F90030BE0FF90002BE069
:100B95006F6003020C1F90030DE0FF90002DE06FC6
:100BA500707890030EE0FF90002EE06F706C90035C
:100BB5000FE0FF90002FE06F7060900315E0FF904D
:100BC5000035E06F7054900316E0FF900036E06F3B
:100BD5007048900317E0FF900037E06F703C90037A
:100BE50018E0FF900038E06F7030900319E0FF9037
:100BF5000039E0B5072490031BE0FF90003BE0B50A
:100C0500071890031CE0FF90003CE0B5070C90032B
:100C15001DE0FF90003DE06F6032E4F52374F72599
:100C250023F582E43402F583E0FF74172523F5826A
:100C3500E43400F583EFF00523E523B444DFD21354
:100C45003090047F3180027F30120C8230130830DF
:100C55009005121038C213C213C215751603D28C33
:100C6500800E121AA4D281E4F5169000287441F082
:0D0C7500301205C280020B1FD280020B1F3F
:031B2B00DFFE22B8
:101A6500AE07AF061EEF600C7FF5121B2B7FF5123C
:051A75001B2B80EE2296
:021A3500AD07FB
:101A3700E4FCECC39D500EE4FB7FC8121A650BBB98
:051A470005F70C80ED25
:011A4C002277
:10169400755110C2A67F0F121A657F38121A7A7F0D
:1016A40005121A657F38121A7A7F05121A657F3877
:1016B400121A7A7F05121A657F38121A7A7F0F126E
:1016C4001A7A7F06121A7A7F01121A7A7F80021A16
:0116D4007A9B
:101A7A00C2A4C2A58F807F05121A65D2A67F05125D
:051A8A001A65C2A6224E
:101A8F00D2A4C2A58F807F05121A65D2A67F051238
:051A9F001A65C2A62239
:101A4D008D4F8B50E54FBF01042480800224C0FFD1
:081A5D00121A7AAF50021A8F31
:1017B9008D108B118A128913E510BF0104248080D2
:1017C9000224C0FF121A7AAB11AA12A9131207DF59
:1017D900FF6010121A8F74012513F513E43512F501
:0417E9001280E42264
:0C1AEF00759850438920758DFDD28E2221
:081B19008F993099FDC2992259
:0818C7008B178A188919AE077E
:1018CF00E4FDEDC39E5015AB17AA18A9198D8275AB
:0C18DF0083001207F8FF121B190D80E6B1
:0118EB0022DA
:0619BC008B2B8A2C892D03
:1019C200E4FEAB2BAA2CA92D8E827583001207F898
:0919D200FF6006121B190E80E9EA
:0119DB0022E9
:061934008B248A258926A0
:10193A00AE07AB24AA25A9268E827583001207F862
:0B194A00FF640D6006121B190E80E701
:01195500226F
:061784008B1A8A1B891C70
:10178A00E4FEAB1AAA1BA91C8E827583001207F805
:10179A006F60030E80ECAB1AAA1BA91C8E8275839C
:0E17AA00001207F8FF6D6006121B190E80E892
:0117B800220E
:061956008B2B8A2C892D69
:10195C00E4FEAB2BAA2CA92D8E827583001207F8FE
:0B196C00FF640A6006121B190E80E7E2
:01197700224D
:051B2100C298AF9922FB
:061877008B1D8A1E891F73
:10187D00E4FEEEC3940A501A3098F7121B21AB1DEB
:10188D00AA1EA91F8E82758300EF1208250EC2981D
:02189D0080E0E9
:01189F002226
:10001D00C115604402F70000000000000000000060
:10002D0000000000000000000000000000000000C3
:10003D0000000000000000000000000000000000B3
:10004D0000000000000000000000000000000000A3
:0E005D00000000000000000000004102F6005C
:0E1AB800759850D29C438920758DFDD28E22E8
:10164C00E4C2ACAF99BF24069002F6F0C21590022A
:10165C00F6E0FE04F074F72EF582E43402F583EF25
:10166C00F07F31121B199002F6E0B432189002FB95
:10167C00E0B447119002FDE0B42C0A900308E0643A
:07168C002C6002D215C29888
:011693002234
:100F1800257325730000415425495044520D0A0099
:100F28004545454545454545454545450A00313111
:100F38003131313131313131310A003131313131F1
:100F48003131313131313131310D0A003232323201
:100F5800323232323232320A0032323232323232C3
:100F6800323232323232320D0A004154254950535E
:100F7800454E443D220030643061220D0A00343170
:100F88003331333033303330333030303030303049
:100F98003030303030303030303030303030303049
:100FA8003030303030303030303030303030303039
:100FB8003030303033300A004154254950434C4FCB
:100FC80053450D0A00415425494F4D4F44453D3185
:100FD8002C312C300D0A0041542B434744434F4ECB
:100FE800543D312C224950222C22434D4E45542247
:100FF8000D0A004154254554435049500D0A0041FB
:10100800542549504F50454E3D22544350222C22DE
:10101800003132322E3232382E31392E35370D002A
:10102800222C31343931362C2C343039380D0A0021
:10006B0060440017000000000000000000000000CA
:10007B000000000000000000000000000000000075
:10008B000000000000000000000000000000000065
:10009B000000000000000000000000000000000055
:1000AB000000000000000000020E0000020800002B
:1000BB00040A00000000602802CE41540D0000002D
:1000CB000000000000000000000000000000415490
:1000DB002B434D47463D300D000000000000000053
:1000EB0000006140015C41542B434D47533D31307F
:1000FB00350D0000000000000000000000000000B3
:10010B000000000000000000000000000000303084
:10011B003131303030443931363838313630303691
:10012B00333832314639303030384141000000002D
:10013B0000000000000035413030303030303030BE
:10014B00303033413030303030303030303033417C
:10015B003030303030303030303000000000323052
:10016B0038463636354446323838414237364437CE
:10017B0038424637353343413635463636324135CC
:10018B003842363600003030323037454143354542
:10019B00413630303445303030303030303035450A
:1001AB0041363030303030303030000000003532E6
:1001BB003036303030303030303037394432303008
:1001CB0032303745434600000000000000000000BD
:1001DB0000000000000035454136303034353030FA
:1001EB0030303030303030303030354541363030D3
:1001FB00303030303030000000000000000035326D
:10020B003036303030303030303037394432000017
:10021B0000000000000000000000000000000000D3
:10022B000000000000004300141A0D0A60FA005B86
:10023B0000000000000000000000000000000000B3
:10024B0000000000000000000000000000000000A3
:10025B000000000000000000000000000000000093
:10026B000000000000000000000000000000000083
:10027B000000000000000000000000000000000073
:10028B000000000000000000000000000000000063
:10029B000000000000000000000000000000000053
:1002AB000000000000000000000000000000000043
:1002BB000000000000000000000000000000000033
:1002CB000000000000000000000000000000000023
:1002DB000000000000000000000000000000000013
:1002EB000000000000000000000000000000000003
:1002FB0000000000000000000000000000000000F3
:10030B0000000000000000000000000000000000E2
:10031B0000000000000000000000000000000000D2
:10032B00000000000000000000004701554154454B
:10033B00300D0A006032029C00000000000000003B
:10034B0000000000000000000000000000000000A2
:10035B000000000000000000000000000000000092
:10036B000000000000000000000054000034353392
:10037B0031333033303330333000000000000000B5
:01038B000071
:100DED00752BFF752C0F752D18752E01752F01752F
:100DFD0030847531017532017533AC7B017A007920
:100E0D005B1203E9752BFF752C0F752D18752E01CF
:100E1D00752F0075305B7531017532017533D47BDB
:100E2D00017A00795B1203E9752BFF752C0F752D77
:100E3D0018752E01752F0075305B753101753201F6
:100E4D007533FC7B017A00795B1203E9752BFF7515
:100E5D002C0F752D18752E01752F0075305B7531A2
:100E6D00017532027533247B017A00795B1203E937
:100E7D00752BFF752C0F752D18752E01752F00759F
:100E8D00305B75310175320275334C7B017A007917
:100E9D005B1203E9752BFF752C0F752D18752E013F
:100EAD00752F0075305B7531017532027533747BAA
:100EBD00017A00795B1203E97B017A0279CE12196E
:100ECD00DC7F02121A35C2987B017A0279E212197F
:100EDD00DC7F02121A35C2987B017A01795C1219F6
:100EED00DC7F02121A35C2987B017A00795B1219E8
:100EFD00DC7F02121A35C2987B017A0079147F02C9
:0B0F0D001218EC7F02121A35C2982265
:1012E800EF2BFFEE3AFEE024D0FDEC34FFCD2FFFCC
:1012F800ED3EFE7D3C1208477C037DE81208598EBE
:10130800088F097C007D0A120859EF2430F50EAECB
:1013180008AF097C007D0A120859ED2430F50FAF9B
:011328000EB6
:10132900EFC394304012EFD39439500C750A3075DD
:101339000B30750C338F0D22EFC394414026EFD348
:10134900944F5020750A30750B30750C34EF24BF5B
:10135900FEC394095007EE2431F50D8007EF24B63A
:101369002441F50DEFC394504021EFD3945A501BFB
:10137900750A30750B30750C35EF24B0FEC3940A2D
:0B1389005006EE2430F50D22750D41DA
:011394002236
:1013950090002EE024D0FFE434FFFE7C007D0A128D
:1013A5000847AA06AB0790002DE024D0FFE434FFE0
:1013B500FE7D6412084790002F1212E8900228E57E
:1013C5000AF0A3E50BF0A3E50CF0A3E50DF0AF0FD4
:1013D500121329A3E50AF0A3E50BF0A3E50CF0A38E
:1013E500E50DF090003CE024D0FFE434FFFE7C00E6
:1013F5007D0A120847AA06AB0790003BE024D0FF00
:10140500E434FFFE7D6412084790003D1212E89017
:101415000278E50AF0A3E50BF0A3E50CF0A3E50DD2
:10142500F0AF0F121329A3E50AF0A3E50BF0A3E52E
:071435000CF0A3E50DF0220D
:1012100090001EE024D0FFE434FFFE7C007D0A1223
:101220000847A3E024D8FDEC34FFCD2FFFED3EFEB0
:101230007D18120859AA04AB057C007D0AAF03AEE5
:1012400002120859EF2430FF1213299001AEE50A6B
:10125000F0A3E50BF0A3E50CF0A3E50DF0AE02AFB3
:10126000037C007D0A120859ED2430FF121329A3D4
:10127000E50AF0A3E50BF0A3E50CF0A3E50DF09073
:101280000020E0FF1213299001BAE50AF0A3E50B54
:10129000F0A3E50CF0A3E50DF0900021E0FF1213A0
:1012A000299001BEE50AF0A3E50BF0A3E50CF0A33D
:1012B000E50DF0900022E0FF1213299001C6E50A27
:1012C000F0A3E50BF0A3E50CF0A3E50DF0900023EF
:1012D000E0FF1213299001CAE50AF0A3E50BF0A381
:0712E000E50CF0A3E50DF0A1
:0112E70022E4
:10103800121210900028E0FF12132990020CE50A02
:10104800F0A3E50BF0A3E50CF0A3E50DF090002963
:10105800E0FF121329900210E50AF0A3E50BF0A3B4
:10106800E50CF0A3E50DF090002AE0FF121329909B
:101078000218E50AF0A3E50BF0A3E50CF0A3E50DD3
:10108800F090002BE0FF12132990021CE50AF0A350
:10109800E50BF0A3E50CF0A3E50DF0900035E0FFBB
:1010A800121329900254E50AF0A3E50BF0A3E50C0E
:1010B800F0A3E50DF0900036E0FF121329900258D6
:1010C800E50AF0A3E50BF0A3E50CF0A3E50DF0901D
:1010D8000037E0FF12132990025CE50AF0A3E50B44
:1010E800F0A3E50CF0A3E50DF0900038E0FF121333
:1010F80029900264E50AF0A3E50BF0A3E50CF0A340
:10110800E50DF0900039E0FF121329900268E50A16
:10111800F0A3E50BF0A3E50CF0A3E50DF012139591
:03112800020DEDC8
:10092C00E4F5527BFF7A0F791E1219DC7BFF7A0FEC
:10093C00791E1219BC7B017A02799C1216037B0179
:10094C007A02799C7F321218C7E4F552749C2552B6
:10095C00F582E43402F583E0B445127BFF7A0F791B
:10096C00281219BC7BFF7A0F79280219DC749C259C
:10097C0052F582E43402F583E0644B702BF5527B24
:10098C00FF7A0F791E1219DC7BFF7A0F791E121970
:10099C00BC7B017A02799C1216037B017A02799C4A
:1009AC007F321218C7020AF8749C2552F582E4347F
:1009BC0002F583E064226003020AE7E552B4310ECB
:1009CC007B017A02799C121603E4F55280020552DF
:1009DC00749C2552F582E43402F583E064346003A0
:1009EC00020AC0E552B4310E7B017A02799C1216D0
:1009FC0003E4F55280020552749C2552F582E434CE
:100A0C0002F583E024CE604C147003020AF81470D3
:100A1C0003020AF8240370757BFF7A0F79361219DA
:100A2C00BC7BFF7A0F79431219DC749C2552F5823A
:100A3C00E43402F583E064227003020AF8E552B450
:100A4C00310E7B017A02799C12160375520180DA01
:100A5C00055280D67BFF7A0F79541219BC7BFF7A32
:100A6C000F79611219DC749C2552F582E43402F57D
:100A7C0083E064226076E552B4310E7B017A027910
:100A8C009C12160375520180DD055280D9749C2589
:100A9C0052F582E43402F583E06422604FE552B4EF
:100AAC00310E7B017A02799C12160375520180DD9E
:100ABC00055280D9749C2552F582E43402F583E00A
:100ACC0064226028E552B4310E7B017A02799C12C3
:100ADC00160375520180DD055280D9E552B4310CF4
:100AEC007B017A02799C121603E4F5520552E55209
:080AFC00C394325003020958B3
:010B040022CE
:101712008B288A29892A7BFF7A0F79721219DC7B3E
:10172200FF7A0F79721219BCAB28AA29A92A1219B9
:101732009AAB28AA29A92A1219567BFF7A0F797E19
:0C1742001219DC7BFF7A0F797E0219BCC3
:020C82008F24BD
:100C840075250C75260D752711E4FD752BFF752C44
:100C94000F752D867B017A00795B1203E9E4FDED83
:100CA400C39404503974172527F582E43400F5837E
:100CB400E0FF121329745B2525F582E43400F583E3
:100CC400E50CF0745B2526F582E43400F583E50D2C
:100CD400F00D0527052505250526052680C1E4FD1B
:100CE400752716EDC39405503974172527F582E44A
:100CF4003400F583E0FF121329745B2525F582E4A3
:100D04003400F583E50CF0745B2526F582E43400A9
:100D1400F583E50DF00D0527052505250526052692
:100D240080C1900033E0FF121329900079E50CF0A4
:100D3400A3E50DF0E4FD75271E752520752621ED2C
:100D4400C39405503974172527F582E43400F583DC
:100D5400E0FF121329745B2525F582E43400F58342
:100D6400E50CF0745B2526F582E43400F583E50D8B
:100D7400F00D0527052505250526052680C1E4FD7A
:100D840075272475252A75262BEDC39405503974CF
:100D9400172527F582E43400F583E0FF1213297444
:100DA4005B2525F582E43400F583E50CF0745B25BE
:100DB40026F582E43400F583E50DF00D05270525BD
:100DC40005250526052680C1900041E0FF12132960
:100DD40090008FE50CF0A3E50DF0900092E524F06F
:090DE4007B017A00795B02171211
:091B10007BFF7A0F79C00219DC99
:10112B007B017A0179551219DC7F01121A357BFF8D
:10113B007A0F79CD1219DC7BFF7A0F79CD1219BC9E
:10114B007F05121A357BFF7A0F79DF1219DC7BFFD3
:10115B007A0F79DF1219BC7F05121A357BFF7A0FD4
:10116B0079FB1219DC7BFF7A0F79FB1219BC7F1408
:10117B00121A3590005BE0B44302804E7BFF7A106D
:10118B0079071219DC7BFF7A1079071219BC7BFFE8
:10119B007A107919E4FF1219787BFF7A107919E428
:1011AB00FF1219347BFF7A1079281219DC7BFF7A36
:1011BB001079281219BC7B017A00795B1216037B1C
:1011CB00017A00795B1219BC80A97F05121A357B55
:1011DB00FF7A0F79721219DC7BFF7A0F7972121971
:1011EB00BC7B017A0079001219DC7B017A00790053
:1011FB001219BC7BFF7A0F797E1219DC7BFF7A0FF9
:05120B00797E0219BC10
:0A1B0600759A50759CFD438E102265
:0B1AFB008F9BE59A30E1FB539AFD221F
:0818EC008B248A258926AE0732
:1018F400E4FDEDC39E5015AB24AA25A9268D82755F
:0C19040083001207F8FF121AFB0D80E6AA
:0119100022B4
:0619DC008B2B8A2C892DE3
:1019E200E4FEAB2BAA2CA92D8E827583001207F878
:0919F200FF6006121AFB0E80E9E9
:0119FB0022C9
:061978008B248A2589265C
:10197E00AE07AB24AA25A9268E827583001207F81E
:0B198E00FF640D6006121AFB0E80E7DC
:01199900222B
:06174E008B498A4A894B19
:10175400E4FEAB49AA4AA94B8E827583001207F8AE
:101764006F60030E80EC0EAB49AA4AA94B8E8275BA
:0F17740083001207F8FF6D6006121AFB0E80E863
:011783002243
:06199A008B2B8A2C892D25
:1019A000E4FEAB2BAA2CA92D8E827583001207F8BA
:0B19B000FF640A6006121AFB0E80E7BD
:0119BB002209
:0E1AC600E59A30E006539AFEAF9B227F002285
:061603008B248A258926D4
:10160900E4FE7D01EEC394325038ED6035E59A3041
:10161900E0F2121AC6AB24AA25A9268E8275830088
:10162900EF1208258E827583001207F8FF644B605C
:1016390009EF64456004EFB45402E4FD0E539AFEC9
:0216490080C25D
:01164B00227C
:051B26001994091201F1
:1019FC00E4FEEF30E704D2A48002C2A4EF25E0FF9E
:0E1A0C00D2A130A203430701C2A10EBE08E41E
:011A1A0022A9
:0E1AD4007F02121A65C2A0D2A3C2A1D2B22212
:0C1AE200C2A31219FCE4FF1219FCD2A3ED
:011AEE0022D5
:091A1B007D017F21121A247F22B3
:101A2400C2A31219FCAC07AF051219FCD2A3AF0470
:011A3400228F
:0617ED008B458A46894786
:1017F300C2A31219FCAD07E4FCECC395485017E4EF
:10180300FF1219FCAB45AA46A9478C82758300EFEA
:0A1813001208250C80E3D2A3AF05F4
:01181D0022A8
:0B16D5007BFF7A1B79267545057F2AF4
:0616E0008B428A4389449D
:1016E600C2A31219FCAD07E4FCECC395455018AB38
:1016F600420544E544AA437002054314F91207DF84
:0B170600FF1219FC0C80E2D2A3AF051B
:0117110022B5
:1015B6008B4C8A4D894EC2A07BFF7A1B79267545D6
:1015C600057F301216E01216D5AB4CAA4DA94E7502
:1015D60045047FA01216E0121A1B7D0A7F24121AF8
:1015E600247D407F25121A247D077F26121A247D2A
:0D15F6000E7F20121A24D2A07F05021A6574
:10184C00C2A01216D5121A1B7D407F25121A247DB8
:10185C00047F31121A247D077F26121A247D0F7FF4
:0B186C0020121A24D2A07F05021A658A
:101911007F07121AE28F202005033004137DFF7F19
:1019210027121A24C2A37FE11219FCD2A37F00223D
:031931007F012211
:06181E008B418A42894360
:10182400E4FB7F07121AE28F20300612C2A0AB41FC
:10183400AA42A9437548047F611217ED7B017DFF1D
:071844007F27121A24AF03F5
:01184B00227A
:10144800020B05E493A3F8E493A34003F68001F2AA
:1014580008DFF48029E493A3F85407240CC8C333A5
:10146800C4540F4420C8834004F456800146F6DF74
:10147800E4800B010204081020408090000EE47EF6
:10148800019360BCA3FF543F30E509541FFEE49369
:10149800A360010ECF54C025E060A840B8E493A330
:1014A800FAE493A3F8E493A3C8C582C8CAC583CA5B
:1014B800F0A3C8C582C8CAC583CADFE9DEE780BE13
:01038C000070
:1006E900E709F608DFFA8046E709F208DFFA803EF3
:1006F90088828C83E709F0A3DFFA8032E309F608E0
:10070900DFFA8078E309F208DFFA807088828C8347
:10071900E309F0A3DFFA806489828A83E0A3F608FB
:10072900DFFA805889828A83E0A3F208DFFA804CD5
:1007390080D280FA80C680D4806980F280338010AC
:1007490080A680EA809A80A880DA80E280CA803315
:1007590089828A83ECFAE493A3C8C582C8CCC5838D
:10076900CCF0A3C8C582C8CCC583CCDFE9DEE7805D
:100779000D89828A83E493A3F608DFF9ECFAA9F0DC
:10078900EDFB2289828A83ECFAE0A3C8C582C8CC32
:10079900C583CCF0A3C8C582C8CCC583CCDFEADE4B
:1007A900E880DB89828A83E493A3F208DFF980CCAD
:1007B90088F0EF60010E4E60C388F0ED2402B404A6
:1007C9000050B9F582EB2402B4040050AF2323454D
:0607D90082239007397332
:1007DF00BB010689828A83E0225002E722BBFE0218
:0907EF00E32289828A83E493224B
:1007F800BB010CE58229F582E5833AF583E02250B6
:1008080006E92582F8E622BBFE06E92582F8E222FF
:0D081800E58229F582E5833AF583E4932219
:10082500F8BB010DE58229F582E5833AF583E8F009
:10083500225006E92582C8F622BBFE05E92582C8B5
:02084500F2229D
:10084700EF8DF0A4A8F0CF8CF0A428CE8DF0A42EC5
:02085700FE227F
:10085900C2D5EC30E709B2D5E4C39DFDE49CFCEEBA
:1008690030E715B2D5E4C39FFFE49EFE1208A1C389
:10087900E49DFDE49CFC80031208A130D507C3E484
:060889009FFFE49EFE2229
:10038D00E537242BF8E60537227828300F02782B35
:10039D00E475F0011208F60207DF2008EB7F2ED27C
:1003AD00088018EF540F2490D43440D4FF300C0B38
:1003BD00EF24BFB41A0050032461FFE53860021525
:1003CD0038053BE53B7002053A300F0D7828E47592
:1003DD00F0011208F6EF02088F0218A07403D20F75
:1003ED008003E4C20FF5378B288A29892AE4F53872
:1003FD00F53AF53BE53860077F201203C880F575A7
:10040D0039FFC209C208C20AC20BC20DC20EC21008
:10041D00120396FF700D300F057F001203D9AF3B0D
:10042D00AE3A22B4255FC2D5C20C120396FF24D07A
:10043D00B40A00501A75F00A783830D50508B6FFA1
:10044D000106C6A426F620D5047002D20B80D9244D
:10045D00CFB41A00EF5004C2E5D20C0205D9D2096F
:10046D0080C6D20880C0D20A80BCD2D580BAD20D47
:10047D0080B47F201203C8200A077401B5380040EC
:10048D00F112038DFF1203C8020401D210D20E80A7
:10049D009512038DFB12038DFA12038DF94A4B70E1
:1004AD000679AA7A067BFF200A2EE538602A7E009F
:1004BD008E827583001207F860060EEE653970F0B6
:1004CD00C2D5EBC0E0EAC0E0E9C0E0EE120620D0F4
:1004DD00E0F9D0E0FAD0E0FB1207DFFF60AAEBC035
:1004ED00E0EAC0E0E9C0E01203C8D0E02401F9D091
:1004FD00E03400FAD0E0FBE5390460DCD539D98071
:10050D00877BFF7A06791CD20A809C79108002794C
:10051D0008C20EC2108008D2D5790A8004790AC2A9
:10052D00D5E539047002F539E4FAFDFEFF12038DAD
:10053D00FC7B0820091312038DFD7B1030080A1275
:10054D00038DFE12038DFF7B20EC3382D592D550A7
:10055D0013C3E43008069FFFE49EFEE42009039DCB
:10056D00FDE49CFCE4CBF8C209EC700CCFCECDCCF5
:10057D00E824F8F870F38017C3EF33FFEE33FEED88
:10058D0033FDEC33FCEB33FB994002FB0FD8E9EB69
:10059D00300905F8D0E0C448B209C0E00AEC4D4E70
:1005AD004F78207B0070C2EAB5390040BCC0E01224
:1005BD000622D0F0D0E0200904C4C0E0C4B209C0C6
:1005CD00F01203B1D0F0D5F0EB02040112090604CC
:1005DD009E53051858046F4C046B42051C4F05249F
:0F05ED0044052449048443052A55050E46050E8E
:1005FC0045050E4706CA5004732D04772E049A2B1A
:10060C00047B2304982006B32A0433480000049288
:10061C003F3F3F00790AA2D5200B14300D09B910C9
:10062C00020404B9080104A2D5200E0250010420D2
:10063C000A68920AB538005034C0E07F20300B199C
:10064C007F30A20A720E720D500F120679C20AC2C6
:10065C000EC20DC2107F30800F300D03E9C0E012C6
:10066C0003C8300D03D0E0F9D0E0B538CC300D170D
:10067C007F30B9100C1203C87F58300C077F78807C
:10068C0003B908031203C8300A057F2D0203C87F83
:10069C00202010F87F2B200EF322920A80CF286E98
:1006AC00756C6C2900D20912038D3009F8C20978D7
:1006BC003830D50108F60204332D50434958120343
:1006CC008D2403B405004001E49006C5931203B9D0
:0D06DC00743A1203B9D20B753804020518E8
:10088F00BB010689828A83F0225002F722BBFE0148
:02089F00F32242
:1008A100BC000BBE0029EF8DF084FFADF022E4CC3B
:1008B100F875F008EF2FFFEE33FEEC33FCEE9DEC04
:1008C100984005FCEE9DFE0FD5F0E9E4CEFD22ED4A
:1008D100F8F5F0EE8420D21CFEADF075F008EF2F94
:1008E100FFED33FD4007985006D5F0F222C398FD85
:0508F1000FD5F0EA2222
:1008F600FAE6FB0808E6F925F0F618E6CA3AF62203
:10090600D083D082F8E4937012740193700DA3A380
:1009160093F8740193F5828883E473740293686094
:06092600EFA3A3A380DF94
:1018A000EFB40A07740D1218AB740A309811A89996
:1018B000B8130CC2983098FDA899C298B811F630A8
:0718C00099FDC299F5992280
:00000001FF
