:0300000002105D8E
:0C105D00787FE4F6D8FD7581460210A4EF
:050006000000000000F5
:0D000E00C112C113C19101160002140000BF
:1015A100D2AFD2A9C288D2A8438901C28C758C3C22
:0415B100758AB02265
:03000B0002116A75
:10116A00C0E0C0F0C083C082C0D075D000C000C04B
:10117A0001C002C003C004C005C006C007758C3C8C
:10118A00758AB00515E51570020514AE14FF7C00CA
:10119A007D0A120930ED4C7002B281E515B4B01225
:1011AA00E514B4040D7514007515007F3212160D7E
:1011BA001516D007D006D005D004D003D002D0012E
:0D11CA00D000D0D0D082D083D0F0D0E03261
:030003000210E9FF
:1010E900C0E0C0F0C083C082C0D075D000C000C0CD
:0D10F90001C002C003C004C005C006C0074E
:10110600783A7C007D007BFF7A0079067E007F05B9
:101116001208907B007A00793A1213C3EF6027E534
:101126003A64017021E53CB4031CE53BB40217E5C3
:101136003DB404127FC8121562301106C211D28066
:091146008004D211C2801213F1E1
:10114F00D007D006D005D004D003D002D001D000F4
:0B115F00D0D0D082D083D0F0D0E0329E
:100A0300E4F523C280D281D2901216031215EC12A0
:100A130015A11215D11213F1209003020B422011DC
:100A230003020B421215B5D28C20140FE516D39492
:100A3300005008E4F51612122480EEE51660030256
:100A43000B31201403020B319003DAE0FF900055C1
:100A5300E06F6003020B0B9003DBE0FF900056E0B6
:100A63006F6003020B0B9003DCE0FF900057E06F15
:100A73006003020B0B9003DDE0FF900058E06F6012
:100A830003020B0B9003DFE0FF90005AE06F7078D6
:100A93009003E0E0FF90005BE06F706C9003E1E097
:100AA300FF90005CE06F70609003E7E0FF900062EE
:100AB300E06F70549003E8E0FF900063E06F7048CC
:100AC3009003E9E0FF900064E06F703C9003EAE07C
:100AD300FF900065E06F70309003EBE0FF900066DD
:100AE300E0B507249003EDE0FF900068E0B5071838
:100AF3009003EEE0FF900069E0B5070C9003EFE090
:100B0300FF90006AE06F6026E4F52374C92523F59E
:100B130082E43403F583E0FF74442523F582E4344F
:100B230000F583EFF00523E523B444DFD21230123E
:100B330005120C8BC212C214751603D28C800E12CE
:100B430015A1D281E4F5169000557441F0121328D3
:0D0B5300301105C280020A1BD280020A1B6D
:03162500DFFE22C3
:10156200AE07AF061EEF600C7FF51216257FF5124F
:05157200162580EE22A9
:02153200AD0703
:10153400E4FCECC39D500EE4FB7FC81215620BBBA8
:0515440005F70C80ED2D
:01154900227F
:10126C00751F10C2A67F0F1215627F381215777F7B
:10127C00051215627F381215777F051215627F38BB
:10128C001215777F051215627F381215777F0F12B2
:10129C0015777F061215777F011215777F8002155F
:0112AC0077CA
:10157700C2A4C2A58F807F05121562D2A67F05126D
:051587001562C2A6225E
:10158C00D2A4C2A58F807F05121562D2A67F051248
:05159C001562C2A62249
:10154A008D1D8B1EE51DBF01042480800224C0FF6F
:08155A00121577AF1E02158C7B
:10135E008D108B118A128913E510BF010424808031
:10136E000224C0FF121577AB11AA12A9131208B6E8
:10137E00FF601012158C74012513F513E43512F568
:04138E001280E422C3
:0C15EC00759850438920758DFDD28E2229
:08160D008F993099FDC299226A
:08146C008B268A278928AE07B0
:10147400E4FDEDC39E5015AB26AA27A9288D8275DD
:0C14840083001208CFFF12160D0D80E649
:011490002239
:05161B00C298AF992206
:06141C008B178A188919E4
:10142200E4FEEEC3940A501A3098F712161BAB175B
:10143200AA18A9198E82758300EF1208FC0EC298B1
:0214420080E048
:011444002285
:10001B00C114604403C90000000000000000000090
:10002B0000000000000000000000000000000000C5
:10003B0000000000000000000000000000000000B5
:10004B0000000000000000000000000000000000A5
:0E005B00000000000000000000004103C8008B
:0E15B500759850D29C438920758DFDD28E22F0
:10122400E4C2ACAF99BF24069003C8F0C214900383
:10123400C8E0FE04F074C92EF582E43403F583EFAC
:10124400F07F3112160D9003C8E0B432189003CD2C
:10125400E0B447119003CFE0B42C0A9003DAE064C1
:071264002C6002D214C298B5
:01126B002260
:061615002573257300009F
:10006900604400440000000000000000000000009F
:100079000000000000000000000000000000000077
:100089000000000000000000000000000000000067
:100099000000000000000000000000000000000057
:1000A9000000000000000000020E0000020800002D
:1000B900040A000000006028039141540D0000006B
:1000C9000000000000000000000000000000415492
:1000D9002B434D47463D300D000000000000000055
:1000E90000006140018941542B434D47533D313054
:1000F900350D0000000000000000000000000000B5
:100109000000000000000000000000000000303086
:10011900313130303044393136383831353339318D
:10012900303538384632303030384141000000002F
:1001390000000000000035413030303030303030C0
:10014900303033413030303030303030303033417E
:100159003030303030303030303000000000323054
:1001690038463636354446323838414237364437D0
:1001790038424637353343413635463636324135CE
:100189003842363600003030323037454143354544
:10019900413630303445303030303030303035450C
:1001A90041363030303030303030000000003532E8
:1001B900303630303030303030303739443230300A
:1001C90032303745434600000000000000000000BF
:1001D90000000000000035454136303034353030FC
:1001E90030303030303030303030354541363030D5
:1001F900303030303030000000000000000035326F
:100209003036303030303030303037394432000019
:1002190000000000000000000000000000000000D5
:100229000000000000004300281A0D0A60FA008847
:1002390000000000000000000000000000000000B5
:1002490000000000000000000000000000000000A5
:100259000000000000000000000000000000000095
:100269000000000000000000000000000000000085
:100279000000000000000000000000000000000075
:100289000000000000000000000000000000000065
:100299000000000000000000000000000000000055
:1002A9000000000000000000000000000000000045
:1002B9000000000000000000000000000000000035
:1002C9000000000000000000000000000000000025
:1002D9000000000000000000000000000000000015
:1002E9000000000000000000000000000000000005
:1002F90000000000000000000000000000000000F5
:1003090000000000000000000000000000000000E4
:1003190000000000000000000000000000000000D4
:100329000000000000000000000047018241544520
:10033900300D0A006028000041540D000000000043
:1003490000000000000000000000000041542B43A1
:100359004D47463D310D000000000000000000003F
:1003690059002B41542B434D474C3D2252454320C4
:10037900554E52454144220D0A0000004F03B94130
:10038900542B434D47443D312C320D0A000060C8BF
:1003990002C9000000000000000000000000000089
:1003A9000000000000000000000000000000000044
:1003B9000000000000000000000000000000000034
:1003C9000000000000000000000000000000000024
:1003D9000000000000000000000000000000000014
:1003E9000000000000000000000000000000000004
:1003F90000000000000000000000000000000000F4
:1004090000000000000000000000000000000000E3
:1004190000000000000000000000000000000000D3
:1004290000000000000000000000000000000000C3
:1004390000000000000000000000000000000000B3
:1004490000000000000000000000000000000000A3
:0A0459000000000000000000000099
:100B60007529FF752A16752B15752C01752D0175C4
:100B70002EB1752F017530017531D97B017A00795D
:100B8000881204C07529FF752A16752B15752C015E
:100B9000752D00752E88752F017530027531017B1A
:100BA000017A0079881204C07529FF752A16752B01
:100BB00015752C01752D00752E88752F0175300265
:100BC0007531297B017A0079881204C07529FF7577
:100BD0002A16752B15752C01752D00752E88752F0D
:100BE000017530027531517B017A0079881204C099
:100BF0007529FF752A16752B15752C01752D007535
:100C00002E88752F017530027531797B017A007954
:100C1000881204C07529FF752A16752B15752C01CD
:100C2000752D00752E88752F017530027531A17BE9
:100C3000017A0079881204C07B017A037991121439
:100C4000D97F02121532C2987B017A0379A512145A
:100C5000D97F02121532C2987B017A017989121468
:100C6000D97F02121532C2987B017A00798812145A
:100C7000D97F02121532C2987B017A0079287F024F
:0B0C80001214917F02121532C298225C
:100F0900EF2BFFEE3AFEE024D0FDEC34FFCD2FFFAE
:100F1900ED3EFE7D3C12091E7C037DE81209308EF0
:100F2900088F097C007D0A120930EF2430F50EAED6
:100F390008AF097C007D0A120930ED2430F50FAFA6
:010F49000E99
:100F4A00EFC394304012EFD39439500C750A3075C0
:100F5A000B30750C338F0D22EFC394414026EFD32B
:100F6A00944F5020750A30750B30750C34EF24BF3E
:100F7A00FEC394095007EE2431F50D8007EF24B61D
:100F8A002441F50DEFC394504021EFD3945A501BDE
:100F9A00750A30750B30750C35EF24B0FEC3940A10
:0B0FAA005006EE2430F50D22750D41BD
:010FB5002219
:100FB60090005BE024D0FFE434FFFE7C007D0A1243
:100FC600091EAA06AB0790005AE024D0FFE434FFBE
:100FD600FE7D6412091E90005C120F09900255E511
:100FE6000AF0A3E50BF0A3E50CF0A3E50DF0AF0FB7
:100FF600120F4AA3E50AF0A3E50BF0A3E50CF0A354
:10100600E50DF0900069E024D0FFE434FFFE7C009B
:101016007D0A12091EAA06AB07900068E024D0FFDD
:10102600E434FFFE7D6412091E90006A120F0990D7
:1010360002A5E50AF0A3E50BF0A3E50CF0A3E50D88
:10104600F0AF0F120F4AA3E50AF0A3E50BF0A3E5F4
:071056000CF0A3E50DF022F0
:100D7E0090004BE024D0FFE434FFFE7C007D0A128D
:100D8E00091EA3E024D8FDEC34FFCD2FFFED3EFE6F
:100D9E007D18120930AA04AB057C007D0AAF03AEA4
:100DAE0002120930EF2430FF120F4A9001DBE50AE0
:100DBE00F0A3E50BF0A3E50CF0A3E50DF0AE02AF4A
:100DCE00037C007D0A120930ED2430FF120F4AA376
:100DDE00E50AF0A3E50BF0A3E50CF0A3E50DF0900A
:100DEE00004DE0FF120F4A9001E7E50AF0A3E50B74
:100DFE00F0A3E50CF0A3E50DF090004EE0FF120F0E
:100E0E004A9001EBE50AF0A3E50BF0A3E50CF0A385
:100E1E00E50DF090004FE0FF120F4A9001F3E50A46
:100E2E00F0A3E50BF0A3E50CF0A3E50DF090005058
:100E3E00E0FF120F4A9001F7E50AF0A3E50BF0A3CD
:070E4E00E50CF0A3E50DF037
:010E5500227A
:100C8B00120D7E900055E0FF120F4A900239E50AD3
:100C9B00F0A3E50BF0A3E50CF0A3E50DF0900056E7
:100CAB00E0FF120F4A90023DE50AF0A3E50BF0A31B
:100CBB00E50CF0A3E50DF0900057E0FF120F4A9002
:100CCB000245E50AF0A3E50BF0A3E50CF0A3E50D57
:100CDB00F0900058E0FF120F4A900249E50AF0A38A
:100CEB00E50BF0A3E50CF0A3E50DF0900062E0FF3F
:100CFB00120F4A900281E50AF0A3E50BF0A3E50C75
:100D0B00F0A3E50DF0900063E0FF120F4A9002850F
:100D1B00E50AF0A3E50BF0A3E50CF0A3E50DF090CD
:100D2B000064E0FF120F4A900289E50AF0A3E50B7D
:100D3B00F0A3E50CF0A3E50DF0900065E0FF120FBA
:100D4B004A900291E50AF0A3E50BF0A3E50CF0A3A2
:100D5B00E50DF0900066E0FF120F4A900295E50A50
:100D6B00F0A3E50BF0A3E50CF0A3E50DF0120FB625
:030D7B00020B6008
:100E5600E4F524F5257B017A0279C91212AD7B01EE
:100E66007A0279C97FC812146CE4F52474C9252462
:100E7600F582E43402F583E06425707A052474C9AA
:100E86002524F582E43402F583E06457703E7F4101
:100E960012160D20140512122480F8E4F52574C9E3
:100EA6002525F582E43403F583E0FF74442525F512
:100EB60082E43400F583EFF00525E525B444DF121E
:100EC6000C8BC2149000557441F0801D74C9252402
:100ED600F582E43402F583E0B4531B7F4112160D0C
:100EE600301104C2118002D21174C82524F582E49F
:100EF6003402F583E4F00524E524C394C8500302C4
:020F06000E7269
:010F080022C6
:101328007B017A0179821214D97F011215327B016F
:101338007A0079001214D97F011215327B017A00E4
:1013480079141214D97F011215327B017A00792B96
:061358001214D9020E562A
:0A160300759A50759CFD438E10226D
:0B15F8008F9BE59A30E1FB539AFD2227
:081491008B268A278928AE078B
:10149900E4FDEDC39E5015AB26AA27A9288D8275B8
:0C14A90083001208CFFF1215F80D80E63A
:0114B5002214
:0614D9008B268A278928FA
:1014DF00E4FEAB26AA27A9288E827583001208CFB7
:0914EF00FF60061215F80E80E9F9
:0114F80022D1
:0E15C300E59A30E006539AFEAF9B227F00228D
:0612AD008B268A27892828
:1012B300E4FE7D01EEC394C8502DED602AE59A301B
:1012C300E0F21215C3AB26AA27A9288E82758300E4
:1012D300EF1208FC8E827583001208CFB44F02E42C
:0712E300FD0E539AFE80CDC1
:0112EA0022E1
:051620001994091201FC
:1014F900E4FEEF30E704D2A48002C2A4EF25E0FFA6
:0E150900D2A130A203430701C2A10EBE08E426
:0115170022B1
:0E15D1007F02121562C2A0D2A3C2A1D2B22222
:0C15DF00C2A31214F9E4FF1214F9D2A305
:0115EB0022DD
:091518007D017F211215217F22C3
:10152100C2A31214F9AC07AF051214F9D2A3AF0488
:011531002297
:061392008B438A448945EB
:10139800C2A31214F9AD07E4FCECC395465017E458
:1013A800FF1214F9AB43AA44A9458C82758300EF58
:0A13B8001208FC0C80E3D2A3AF057D
:0113C2002208
:0B12EB007BFF7A1679207543057F2AEF
:0612F6008B408A41894291
:1012FC00C2A31214F9AD07E4FCECC395435018AB30
:10130C00400542E542AA417002054114F91208B6A3
:0B131C00FF1214F90C80E2D2A3AF0511
:0113270022A3
:1011D7008B1A8A1B891CC2A07BFF7A16792075435C
:1011E700057F301212F61212EBAB1AAA1BA91C7557
:1011F70043047FA01212F61215187D0A7F241215D8
:10120700217D407F251215217D077F261215217D1F
:0D1217000E7F20121521D2A07F0502156266
:1013F100C2A01212EB1215187D407F251215217D16
:10140100047F311215217D077F261215217D0F7F63
:0B14110020121521D2A07F05021562F9
:1014B6007F071215DF8F202005033004137DFF7F81
:1014C60027121521C2A37FE11214F9D2A37F0022AD
:0314D6007F012271
:0613C3008B3F8A408941C6
:1013C900E4FB7F071215DF8F20300612C2A0AB3F66
:1013D900AA40A9417546047F611213927B017DFFE2
:0713E9007F27121521AF035D
:0113F00022DA
:10106900020A03E493A3F8E493A34003F68001F290
:1010790008DFF48029E493A3F85407240CC8C33388
:10108900C4540F4420C8834004F456800146F6DF57
:10109900E4800B010204081020408090000EE47ED9
:1010A900019360BCA3FF543F30E509541FFEE4934C
:1010B900A360010ECF54C025E060A840B8E493A313
:1010C900FAE493A3F8E493A3C8C582C8CAC583CA3E
:1010D900F0A3C8C582C8CAC583CADFE9DEE780BEF6
:010463000098
:1007C000E709F608DFFA8046E709F208DFFA803E1B
:1007D00088828C83E709F0A3DFFA8032E309F60808
:1007E000DFFA8078E309F208DFFA807088828C8370
:1007F000E309F0A3DFFA806489828A83E0A3F60824
:10080000DFFA805889828A83E0A3F208DFFA804CFD
:1008100080D280FA80C680D4806980F280338010D4
:1008200080A680EA809A80A880DA80E280CA80333D
:1008300089828A83ECFAE493A3C8C582C8CCC583B5
:10084000CCF0A3C8C582C8CCC583CCDFE9DEE78085
:100850000D89828A83E493A3F608DFF9ECFAA9F004
:10086000EDFB2289828A83ECFAE0A3C8C582C8CC5A
:10087000C583CCF0A3C8C582C8CCC583CCDFEADE73
:10088000E880DB89828A83E493A3F208DFF980CCD5
:1008900088F0EF60010E4E60C388F0ED2402B404CE
:1008A0000050B9F582EB2402B4040050AF23234575
:0608B00082239008107382
:1008B600BB010689828A83E0225002E722BBFE0240
:0908C600E32289828A83E4932273
:1008CF00BB010CE58229F582E5833AF583E02250DE
:1008DF0006E92582F8E622BBFE06E92582F8E22228
:0D08EF00E58229F582E5833AF583E4932242
:1008FC00F8BB010DE58229F582E5833AF583E8F032
:10090C00225006E92582C8F622BBFE05E92582C8DD
:02091C00F222C5
:10091E00EF8DF0A4A8F0CF8CF0A428CE8DF0A42EED
:02092E00FE22A7
:10093000C2D5EC30E709B2D5E4C39DFDE49CFCEEE2
:1009400030E715B2D5E4C39FFFE49EFE120978C3D9
:10095000E49DFDE49CFC800312097830D507C3E4D4
:060960009FFFE49EFE2251
:10046400E5352429F8E60535227826300F02782967
:10047400E475F0011209CD0208B62008EB7F2ED2F4
:10048400088018EF540F2490D43440D4FF300C0B60
:10049400EF24BFB41A0050032461FFE5366002154F
:1004A400360539E53970020538300F0D7826E475C4
:1004B400F0011209CDEF0209660214457403D20F4C
:1004C4008003E4C20FF5358B268A278928E4F536A4
:1004D400F538F539E53660077F2012049F80F575FD
:1004E40037FFC209C208C20AC20BC20DC20EC21033
:1004F40012046DFF700D300F057F001204B0AF3988
:10050400AE3822B4255FC2D5C20C12046DFF24D0CC
:10051400B40A00501A75F00A783630D50508B6FFCB
:100524000106C6A426F620D5047002D20B80D92475
:10053400CFB41A00EF5004C2E5D20C0206B0D209BF
:1005440080C6D20880C0D20A80BCD2D580BAD20D6F
:1005540080B47F2012049F200A077401B53600403E
:10056400F1120464FF12049F0204D8D210D20E8048
:1005740095120464FB120464FA120464F94A4B7081
:100584000679817A077BFF200A2EE536602A7E00F1
:100594008E827583001208CF60060EEE653770F008
:1005A400C2D5EBC0E0EAC0E0E9C0E0EE1206F7D045
:1005B400E0F9D0E0FAD0E0FB1208B6FF60AAEBC085
:1005C400E0EAC0E0E9C0E012049FD0E02401F9D0E1
:1005D400E03400FAD0E0FBE5370460DCD537D9809D
:1005E400877BFF7A0679F3D20A809C79108002799E
:1005F40008C20EC2108008D2D5790A8004790AC2D2
:10060400D5E537047002F537E4FAFDFEFF12046401
:10061400FC7B08200913120464FD7B1030080A12C5
:100624000464FE120464FF7B20EC3382D592D5501F
:1006340013C3E43008069FFFE49EFEE42009039DF3
:10064400FDE49CFCE4CBF8C209EC700CCFCECDCC1D
:10065400E824F8F870F38017C3EF33FFEE33FEEDB0
:1006640033FDEC33FCEB33FB994002FB0FD8E9EB91
:10067400300905F8D0E0C448B209C0E00AEC4D4E98
:100684004F78207B0070C2EAB5370040BCC0E0124E
:1006940006F9D0F0D0E0200904C4C0E0C4B209C017
:1006A400F0120488D0F0D5F0EB0204D81209DD056D
:1006B400755305EF5805464C05424205F34F05FBBB
:0F06C4004405FB49055B4306015505E54605E581
:1006D3004505E54707A150054A2D054E2E05712B0B
:1006E300055223056F20078A2A050A480000056979
:1006F3003F3F3F00790AA2D5200B14300D09B910F2
:10070300020404B9080104A2D5200E0250010420FA
:100713000A68920AB536005034C0E07F20300B19C6
:100723007F30A20A720E720D500F120750C20AC216
:100733000EC20DC2107F30800F300D03E9C0E012EE
:10074300049F300D03D0E0F9D0E0B536CC300D175F
:100753007F30B9100C12049F7F58300C077F7880CC
:1007630003B9080312049F300A057F2D02049F7FFB
:10077300202010F87F2B200EF322920A80CF286EC0
:10078300756C6C2900D2091204643009F8C2097827
:100793003630D50108F602050A2D50434958120494
:1007A300642403B405004001E490079C9312049071
:0D07B300743A120490D20B7536040205EF63
:10096600BB010689828A83F0225002F722BBFE0170
:02097600F3226A
:10097800BC000BBE0029EF8DF084FFADF022E4CC63
:10098800F875F008EF2FFFEE33FEEC33FCEE9DEC2C
:10099800984005FCEE9DFE0FD5F0E9E4CEFD22ED72
:1009A800F8F5F0EE8420D21CFEADF075F008EF2FBC
:1009B800FFED33FD4007985006D5F0F222C398FDAD
:0509C8000FD5F0EA224A
:1009CD00FAE6FB0808E6F925F0F618E6CA3AF6222B
:1009DD00D083D082F8E4937012740193700DA3A3A9
:1009ED0093F8740193F5828883E4737402936860BD
:0609FD00EFA3A3A380DFBD
:10144500EFB40A07740D121450740A309811A89954
:10145500B8130CC2983098FDA899C298B811F63007
:0714650099FDC299F59922DF
:00000001FF
